:400000000080002011000000D9090000D909000008B5044B1A6803F53F5302331A6000F0E3FC00BFFA46004010B5054C237833B9044B13B10448AFF300800123237010BDD4
:400040004881FF1F00000000982D0000084B10B51BB108490848AFF300800848036803B910BD074B002BFBD0BDE81040184700BF000000004C81FF1F982D0000C880FF1F78
:40008000000000002DE9F04184B062B64F4802F0F7FD4F4E4F4B1E6002F03CFC02F04EFC0121002000F0F6FD4B4C204600F0A8F84A4D23464A4A0021284600F0B3F823463C
:4000C00032460221474800F0ADF82346464A0421681800F0A7F8204600F010F90146434800F0F2F9424C204600F03EFADFF80C8122460421404600F0A7FA05F10807224677
:400100000421384600F0A0FA3A4E22460421304600F09AFA64230393C82302934FF496730193224603A9002000F054FA224602A9012000F04FFA224601A9022000F04AFABF
:4001400022464146002000F06BFA22463946012000F066FA22463146022000F061FA02F081FD0023EB60244B1B78DBB2012BFAD10025214B1D70194B1A7801321A701A8A9E
:400180000A321A825A6864325A60134C204600F0D5F8164E3146204600F0FAF8304600F0C3F9204600F0EEF8284602F0CFFB18B102F0E4FB0B4B18800C4C21460C4800F09D
:4001C00059FA204600F068F9CDE700BF002E000000380000D094FF1F3482FF1F6481FF1F0C380000CE94FF1F143800009C81FF1F808BFF1FC894FF1FCC94FF1FCC80FF1FED
:40020000002304E0C218002182F8001901333F2BF8DD0023C0F84839C0F840394023C0F844397047F0B593B08DF804100090D3F848491F2C1ADC1D461646E7003B19D8005A
:4002400048226946284402F08BFD3C44E0002844441D304602F097FD421C3146204602F07FFDD5F848390133C5F8483913B0F0BD0B6C4A6C934202DAC85401330B64704729
:40028000F8B506460D461746002434E06B1E072B30D8DFE803F004092F122F2F2F1B39463078FFF7E5FF25E03388E00043FA00F03946C0B2FFF7DCFF1CE03368E00023FAC6
:4002C00000F03946C0B2FFF7D3FF13E0D6F804E0E000C0F12001A0F12002336823FA00F00EFA01F108432EFA02F210433946C0B2FFF7BEFF0134AC42C8DBF8BD00F510606B
:40030000704700BF0A2815D8DFE800F006061616080A0C0E1012060001207047042070470420704708207047082070470420704708207047002070470220704770B50546BF
:4003400000240EE0E3002344DA00AB18AE581879FFF7D8FF05F5106201463046FFF790FF0134D5F848399C42ECDB70BD002302E00022C2540133426C9342F9DB00230364CB
:40038000704700BF08B500F51060FFF7EFFF08BD4B79002B5CD070B50C46CB7C8D7CC5EB05252B44497CC1EB01410B44227CC2EB02621344013B062B49D8DFE803F0040E6F
:4003C000233D40434600D0F8483984F85030012384F890300023637170BD237DD0F84829934209DC03EBC303DA0010440079FFF789FFC00084F85000012384F89030002390
:40040000637170BD237DD0F8482993420EDC04F1500603EBC303DD0005440535284602F0B2FC02462946304602F09AFC012384F890300023637170BD0023637170BD002336
:40044000637170BD0023637170BD0023637170BD704700BF002303600371C36003E0C2180021117401333F2BF9DD002304E0C218002182F8501001333F2BF8DD002380F8DF
:400480009030704708B50379012B04D140228168012000F05BFC08BD90F890309BB110B50446402200F15001032000F04FFC002384F8903004E0E218002182F85010013302
:4004C0003F2BF8DD10BD70478160704738B50446042000F01DFC012825D10123637104F11005042000F01EFC02462946042000F08DFCE27CA17CC1EB01215318627CC2EB5B
:4005000002421A44237CC3EB03631344082B02D0092B05D038BD012323710023637138BD00232371637138BD10B504460D4B1B7873B9FFF78FFF00F0E5FB88B1022000F023
:400540004FFC042000F04CFC0122064B1A7010BDFFF7BCFF2046FFF79FFF2046FFF792FF10BD00BF7681FF1F002309E000EBC30100220A7140F83320C11881F8042801333B
:40058000FF2BF3DD0023C0F800387047F8B506460F4600252C4606E007EBC4031879FFF7B1FE05440134B442F6DB2846F8BD00BF70B41418FF2C07D909E025180E5D1D4449
:4005C00085F80468013400E000249442F5D370BC704700BFF8B505460F4614461146FFF7D5FF064604EBC5052879FFF78BFE2346024639463046FFF7DBFFF8BD30B4141871
:40060000FF2C07D909E025181D4495F804580D55013400E000249442F5D330BC704700BFF8B505460F4614461146FFF7AFFF064604EBC5052879FFF765FE234602463946D3
:400640003046FFF7DBFFF8BD10B483B08DF804100090D2F80038FF2B09DC02EBC30402A911E9030084E803000133C2F8003803B010BC70474B79002B55D02DE9F0410C467A
:400680000546CB7C897CC1EB01210B44627CC2EB02421344227CC2EB026213440C2B0ED00D2B20D00B2B3CD1D0F8003884F85030012384F8903000236371BDE8F081237DD1
:4006C000D0F80028934207DC00EBC3052879FFF719FEC00084F85000012384F8903000236371BDE8F081267DD0F800389E4213DC04F1500801463046FFF748FF00F50060EA
:400700002F18043705EBC6052879FFF7FBFD02463946404602F024FB012384F8903000236371BDE8F0817047FEE700BFF0B40022174611E050F82760F3B226F0FF0608E03C
:4007400001EB420511F812406D78A5550132013BDBB2002BF4D10137182FEBD9F0BC70470A4B1B78DBB203F00701094A11701B09013213700822074B1A708023064A1370E0
:40078000583213704422054B1A707047CF0100496E5800403D510040005B00407658004008B50A46002102F0E6FA08BD08B502F0D7FA08BD38B500242F4B1C8050220233C7
:4007C0001A7045F6BF5202331A80192502331D7004222A492A48FFF7E9FF0622294B1A705222A3F580731A70274B1B78DBB2274A13704FF4E362264B1A8042F25122023BBF
:400800001A800CE0234B1B7803F0010343EA440404F003044FF4F07002F04AFA013D0DB1032CEFD115B90320FFF77EFF1A4A4FF48073138007231370002318490B70482061
:40084000023108701370053213700222144B1A7004220A331A70134A137843F003031370013A137843F001031370013A137843F08003137038BD00BF804000401401004862
:4008800000410040004300400F010049A14600402242004025420040044000400640004001400040A2430040012807D8044B53F820201844017A13780B431370704700BF2E
:4008C0001C380000012808D8044B53F820201844017A137823EA0103137070471C38000010B572B661222B4B1A70FFF763FF2A4A137843F00403137000240BE0274863005B
:400900001A19510001440A46098AD068FFF748FF0134E4B2072CF1D921494FF09040FFF705FF0A221F4B1A701F490B7843F002030B7010310B7843F002030B701B4C237824
:4009400043F040032370A1F5863151390B7843F010030B7016491748FFF728FF082216491648FFF723FF082215491648FFF71EFF082215491548FFF719FF154A137843F070
:4009800008031370FFF7ECFE0E2221461148FFF70DFF10BD00480040E84600401C380000640000488358004003500140A0430040F0000048F0510040FC00004812510040A2
:4009C00004010048225100400C0100483251004022430040B043004008B502F095F903680C2B00D1FEE7FEE708B5104E104D16E029686B68AC68002204E051F8040B43F80E
:400A0000040B0432A242F8D1E868002203E0002143F8041B04328242F9D11035013E002EE6D102F077F9FFF72DFBFEE7010000008839000008B5104A104B1A60104A1368DF
:400A400043F40073136000230AE0032B03D80D4A52F8231000E00C490C4A42F8231001332F2BF2D90A4B1A780A4B1A70074A0A4B1A60FFF735FF08BD0004FA050CED00E06D
:400A800014ED00E000000000D90900000080FF1FBC760040C080FF1F08ED00E0F8B502F00FF90746404A137843F0010313701032137843F00103137001263C4B1E70022583
:400AC000943B1D7002F5E2521B32137803F07F031370002001F098FA354C237803F0F9032370344A137803F0DF031370237833432370304601F088FA282001F085FA2E4B3F
:400B00001A7802F07F021A701A7802F0BF021A7023782B432370284601F076FA237843F0040323700023254A137001321370384602F0CAF80721172001F0A6FA20491720F7
:400B400001F08EFA0721182001F09EFA1D49182001F086FA0721304601F096FA1A49304601F07EFA0721284601F08EFA1749284601F076FA0721032001F086FA1449032029
:400B800001F06EFA0721042001F07EFA1149042001F066FA07210C2001F076FA0E490C2001F05EFAF8BD00BFA54300409D6000409443004012600040F85100408460004088
:400BC000651300005D11000089120000B9120000ED120000291300006D13000008B5214B18700023204A1370204A1370204A1370204A1370204A1370204A1370204A13709F
:400C0000204B4FF400021A604FF080721A6002221A6004221A6008221A6010221A6011B1012906D00BE0184A137803F0FE0313700AE0154A137843F00103137004E0124A72
:400C4000137843F0010313700322104B1A708022203B1A70012002F02BF804220C4B1A7008BD00BFE894FF1FEE94FF1FEC94FF1FED94FF1FE994FF1FD494FF1FEB94FF1FA8
:400C80006495FF1F00E100E009600040286000401260004038B504460D46064B1B7823B9FFF7FCFE0122034B1A7029462046FFF795FF38BD7781FF1F00230A4A13700A4A4C
:400CC00013700A4A13700A4A13700A4A13700A4A13700A4A13700322094B1A708022203B1A707047EE94FF1FEC94FF1FED94FF1FE994FF1FD494FF1FEB94FF1F6495FF1F4B
:400D000028600040014B1878704700BFED94FF1F00EB40008300024A13445878704700BFF894FF1F431EDBB2072B0BD8064B00011A18185C00F00F00537843EA002002386D
:400D400080B2704700207047FC5F0040431EDBB2072B3CD8F0B4074600EB4004A3001C4C2344DB889BB2C3F500739A4208D900EB400293002344DA8892B2C2F5007292B280
:400D800000EB4004A300124C2344DB7843EA1223104D04012E192B55D3B2737039B909E0CE5C3D010C4C665501339BB200E000239A42F5D8420002449300054A13440022F0
:400DC0005A705A79D2B20001044B1A54F0BC7047F894FF1FFC5F004078600040FE5F0040431EDBB2072B0BD8420002449300054A134400225A705A79D2B20001024B1A54F4
:400E0000704700BFF894FF1FFE5F004070B5D9B1054614460E46C8B1082819D8FFF782FFA04203D22846FFF77DFF0446002305E02901094A525CF25401339BB2A342F7D3B2
:400E40002846FFF7CDFF04E0002402E0002400E00024204670BD00BF786000401D4B19781D4A13889BB20B449BB2138000220FE01A494B681B78DBB2194883544B680133E9
:400E80004B600132D2B20B889BB2013B9BB20B80124B1B889BB20BB1072AE9D90D4B1B78DBB2082B00D05AB10E490B7883F080030B700F210C4B197002210C4B197004E018
:400EC000022309490B7009490B70094B1A70014B1A7070476495FF1F6A95FF1FDC94FF1F00600040EA94FF1FD594FF1FEE94FF1F6595FF1F0222074B1A708022064B1A700E
:400F00000F22064B1A700023054A1370054A137001207047EE94FF1FEA94FF1FD594FF1F6495FF1F6595FF1F08B5FFF797FF08BD10B4194B197801F00F010239C9B2174A35
:400F400013889BB20B449BB21380002011E0144A5468144B1B5CDBB223705368013353600130C0B20139C9B213889BB2013B9BB213800B4B1B889BB20BB10029E7D10A4B03
:400F800019700A4A137883F0800313700B22084B1A7010BC704700BF296000406A95FF1FDC94FF1F006000406595FF1FEA94FF1FD594FF1F0623064A1370064A1370802244
:400FC000054B1A700022054B1A700120704700BFEE94FF1FD594FF1FEA94FF1F6595FF1F064B9B6843B1054B9A6810709A6804490988518000229A60704700BFDC94FF1FBE
:401000006A95FF1F08B5134B1A78D2B21A701B78DBB213F0800F02D00F4A137008BD0220FFF7DEFF0D4B1B7803F06003202B05D0402B06D043B900F041FC06E001F048FED6
:4010400003E000F0CFFD00E0002010B90322024B1A7008BD28600040D594FF1F0060004008B5094B1978094A13889BB20B449BB213800022064B1A700120FFF7B1FF032263
:40108000044B1A7008BD00BF6495FF1F6A95FF1FEE94FF1FD594FF1F08B50B4B1B78DBB2042B06D0062B07D0022B0BD1FFF7D8FF08BDFFF73DFF08BD0320FFF791FF0322D8
:4010C000024B1A7008BD00BFEE94FF1FD594FF1F08B50022044B1A700120FFF781FF0322024B1A7008BD00BFEE94FF1FD594FF1F08B50B4B1B7813F0FF0F07D0084A13780D
:4011000043F0800307490B70002313700022064B1A700120FFF764FF0322044B1A7008BDD494FF1F08600040EE94FF1FD594FF1F08B5094B1B78DBB2042B06D0062B07D0BB
:40114000022B07D1FFF7F0FE08BDFFF7C1FF08BDFFF7CEFF08BD00BFEE94FF1F08B5284B1B78DBB213F0100F48D013F0800F0CD003F00F03012B16D1FFF744FF214B1B7817
:4011800013F0800F11D1012312E013F0400F03D0FFF7CEFF01230BE013F0200F07D0FFF77BFF012304E0002302E0002300E0002323B3134B1B7813F0800F1FD1124B1B78C9
:4011C000124A12781343124A13701278D2B2934214D10C4B1B78DBB2094A127812F0800F07D1084B1B78DBB2054A1370137803F00F03044A1278D2B29342EAD108BD00BF0A
:4012000028600040D594FF1FEA94FF1F6595FF1F296000400022064B1A80064B9B682BB1044A916800230B7092685380704700BF6A95FF1FDC94FF1F08B50F4B1B889BB2CB
:4012400013B9FFF757FE15E002220C4B1A7000220B4B1A70FFF7DEFF0A4AD179937943EA0123054A128892B2934201D2024A1380FFF7F4FD012008BDDC94FF1FEE94FF1FDE
:40128000EA94FF1F006000400122094B1A700F3B9B7C084B1B7B03F00303934204D0054AD37B83F08003D3730122024B5A7370470B600040F894FF1F02220A4B1A700F3B96
:4012C00093F82230084B1B7E03F00303012B04D0054AD37E83F08003D3760122024B5A76704700BF0B600040F894FF1F04220C4B1A700F3B93F832300A4B93F8243003F0DD
:401300000303012B06D0074A92F8273083F0800382F827300122034B83F82520704700BF0B600040F894FF1F08220C4B1A700F3B93F842300A4B93F8303003F00303012BF9
:4013400006D0074A92F8333083F0800382F833300122034B83F83120704700BF0B600040F894FF1F08B5FFF7A7FC08BD08B500F045FC08BD10B401233EE019461A010C2400
:401380002148845403EB4300820020480244527912F0FF0F13D003EB430082001B480244127912F0800F04D01801194A024494700AE01801164A02440820907004E01801ED
:4013C000134A0244802090704800084482000F480244D488E4B208010B4901448C71D088C0F30720C871D088C0B20871D288C2F307224A710133DBB2082BBED9FF22054BC9
:401400001A7010BC704700BF70600040F894FF1FFC5F00400A600040074B1A78074B03EBC2035B681A7C824204D9C000103018444068704700207047E894FF1F5838000042
:40144000F8B5404B1B7813F0FF0F79D03D4B18780138C0B2FFF7E0FF047AC2683A4B1878C0B200236AE01178884264D13749095CC9B25578A9425ED1917801F07F01D6787C
:4014800006F00306DFF8C8E04D000D44AF000EEB07054FF0000C85F803C092F802C085F804C092F803C00EF807C097882F8192F90250002D0DDA012E01D1072700E00D2727
:4014C0004E000E44B500224E35446F7101266E700CE0012E01D1052700E009274E000E44B5001B4E35446F7100266E70DFF868E00F010EEB07060125B57001FA05F52944A3
:401500008D00134929440D89C5F307250EF807500D89EDB27570CE88F6B20E4D3D44AE71CE88C6F30726EE71CE88F6B22E71C988C1F30721697108320133DBB2A34292D3E7
:40154000F8BD00BFED94FF1FE994FF1FD894FF1FF894FF1F70600040FC5F0040034B1A78034B03EBC2035868704700BFE894FF1F5838000008B5084B18780138C0B2FFF75C
:401580004BFF30B142681279023200EBC203586808BD002008BD00BFED94FF1F2DE9F041002310E0684D5900CA189600AC190022AA55A270E2702281A272627034462C4482
:4015C00062710133DBB2082BECD940B90AE000225E49CA545E49CA540133DBB200E00023002BF4D05B4B1B7813F0FF0F00F0A980584B18780138C0B2FFF70EFF4368DB79DA
:4016000013F0400F05D0544A137843F00103137004E0514A137803F0FE031370057A012464E0C16800235DE08A7802F07F02944255D1264604EB4407BA00434F3A44128932
:4016400092B28F88BA4207D204EB440E4FEA8E02DFF8F4E0724417810A783C4FBA5CD2B24F78BA423BD191F802C0DFF8DCE07200324497000EEB070282F804C0CA780EF8DC
:401680000720CA7802F0030291F90270002F13DA012A02D14FF0070801E04FF00D08DFF8A8E0720002EB060C4FEA8C07774487F8058001267E7012E0012A02D14FF0050885
:4016C00001E04FF00908DFF880E0720002EB060C4FEA8C07774487F8058000267E7008310133DBB2AB429FD30134E4B2082C98D9C06800220CE0837803F07F0310F8084BA8
:4017000003EB43039900104B19448C720132D2B2AA42F0D3FFF72EFF104B1860002101230BE0094D5A00D01884002C44E180228992B2114489B20133DBB2082BF1D9FFF77A
:4017400019FEBDE8F08100BFF894FF1FD894FF1F6895FF1FED94FF1FEB94FF1FF494FF1F08B5154B1B7903F07F035A1ED2B2072A20D8590019448A0010490A44917841F0E0
:40178000010191700021D170517841F002015170127912F0800F05D01B01094A1A448D23937004E01B01064A1A4489239370FFF701FC08BD002008BD00600040F894FF1F51
:4017C000FC5F0040274B1B7903F07F035A1ED2B2072A44D810B5590019448A0022490A44917801F0FE0191700021D1701F4C1801215C01F07F012154517801F0FD01517010
:40180000127912F0800F13D003EB43018A0016490A445278D2B2012A04D1224602440C23937019E01B01114A1A440D23937013E003EB43018A000C490A445278D2B2012A46
:4018400005D11B01094A1A440823937004E01B01064A1A4409239370FFF7ACFB10BD0020704700BF00600040F894FF1FFC5F004010B50E4B1C79E4B20D4B18780138C0B2F9
:40188000FFF7CAFD43681B799C4201D9012C0AD8084A135DDBB208490B55044B9B78DBB21355012010BD002010BD00BF00600040ED94FF1FD894FF1F6895FF1F10B59B4BE5
:4018C0001B78DBB200219A4A118013F0800F00F09C80964A5278D2B20A2A00F25F81DFE812F058005D015D015D015D015D010B005D0181005D0189008C4BDB78DBB2012BB5
:4019000009D1FFF72BFE4268894B5A6012221A80FFF792FC10BD854BDB78DBB2022B13D1824B9878FFF778FD002800F0398142687F4B5A605A68D1785A68927842EA012228
:401940001A80FFF779FC10BD784BDB78DBB2032B05D01BE00A7811440133DBB201E000237449724A9278D2B2934203D20A7812F0FF0FEFD10B7813F0FF0F00F013810B78BA
:401980006B4A13805160FFF757FC10BD01F0A0F910BD13F0030317D0022B40F0058164490B80624B1B7903F07F0303EB43039A00614B1A449278D2B2604B1A7000225A7079
:4019C0004B60FFF739FC10BD594902230B805C4B1A78D2B2594B1A7000225A704B60FFF72BFC10BD524B01221A80564A5A60FFF723FC10BD4E4A012313804C4B1B795249DB
:401A00000B445360FFF718FC10BD484A5278013A0A2A00F2CB80DFE812F04C00C9007900C9000B00C900C900C9001300C90030003E4B9B78DBB2454A1370FFF7BBFA10BD80
:401A40003A4B9B7803F0FF041BB1601EC0B2FFF7E3FC04B110B9002C40F0AA80394B1B78DBB29C4206D0374B1C700120384B1870FFF794FDFFF79EFA10BDFFF7F9FE0028BA
:401A800000F09880294A1379DBB21279D2B231490A70314AD25CD2B22B49CB5CDBB29A4204D001222A4B1A70FFF7CAFCFFF782FA10BD03F00303012B17D04BB1022B7BD1EC
:401AC0001A4B9B7813F0FF0F78D1FFF77BFE10BD164B9B78DBB2012B72D1194A137803F0FD031370FFF766FA10BD104B1B7913F0FF0F67D10D4B98781B79DBB21749CA5C9A
:401B000022EA0002CA54FFF755FA10BD03F00303012B32D023B3022B56D1044B9B7813F0FF0F53D1FFF71CFE10BD00BF00600040DC94FF1FBC380000F894FF1F7881FF1F00
:401B4000EB94FF1FED94FF1FD894FF1FD494FF1FEC94FF1FE994FF1F6895FF1FF094FF1F1D4B9B78DBB2012B32D11C4A137843F002031370FFF71EFA10BD174B1B7913F06C
:401B8000FF0F27D1144B98781B79DBB21449CA5C22EA0002CA54FFF70DFA10BD002010BD002010BD002010BD002010BD002010BD002010BD002010BD002010BD002010BDC1
:401BC000002010BD002010BD002010BD002010BD002010BD002010BD00600040EB94FF1FF094FF1F044B1B7813F0800F01D0024B5B780020704700BF00600040024B187800
:401C0000C0F38010704700BF8F45004070B48A6902600024264608E013681BB19E4201D202601E4602F5807201344D680B6903FB05F39C42F0D370BC704700BF30B4044678
:401C400018B1086800F5807008600D681868854201D398690860002010605868844218D31C69012C13D90968A1EB00259B699D420BD204F1FF1404F57F4400FB04F003EBC3
:401C80000020C91A0844106003E0156001E00B68136030BC704700BF10B404460022FF2013E0A35C584000230BE010F0800F04D04000C0B280F0310001E04000C0B2013380
:401CC000DBB2072BF1D9013292B28A42E9D110BC704700BFC1680268D30912F07F0200D001221A44436803FB02F3027A02FB033301EB032321B1B3F5802F03D9032070479B
:401D0000032070470020704770B504460E46C0F3072500F0E7F832462946C4F3074000F067F9044600F07AF90CB1042070BD002070BD00BFF0B5C3B00446836800931D6820
:401D40000127002623E0009F4FF48072394601A801F006F801350195802121A8FFF79CFF2090224601A93846FFF7CEFFA069009B1B1A2068224601A91844FFF7C5FF074687
:401D8000234641AA69462846FFF758FF01366268236903FB02F39E42D5D3384643B0F0BDF8B500293DD00D4600283CD0C368002B3BD043680A2B3AD80768002F39D0044691
:401DC000FFF788FF0646002834D1EF6063682B61237A2B75637A6B75E368AB612368DA0913F07F0300D0012313446B60626802FB03F3E26802EB03232C4644F8083B294673
:401E00002046FFF703FFAB681B689BB92B7D8BB12846FFF78FFF064629462046FFF7F6FE08E0012606E0012604E0012602E0012600E001263046F8BD10B500F03DF900F03C
:401E4000EBF910BB012000F0C9F9072818D102210F4800F043F902280AD102E0012000F0D3F80C4B1B7813F0020FF7D0002409E0084B1B7813F0020FE9D04FF0FF3401E087
:401E80004FF0FF3400F0EEF900E00424204610BD6C95FF1F2247004010B500F00DF900F0BBF9D0B900F0FAF90446072812D102E0012000F0A9F80A4B1B7813F0020FF7D058
:401EC000074B1B7813F0020F04D0054B1B789B0800D1002400F0C6F900E00424204610BD2247004008B5FFF7D7FF034610B9FFF7A3FF0346184608BD2DE9F041441FE4B228
:401F00003A2C01D9002500E0012510F0800F00D00125412800D901253F2803D8B1F5807F06D808E0802900D90125102B02D102E0012500E0012502B90125002D50D19846CB
:401F400016460F46044600F067F9002847D1434632463946204600F0DBF8064607283AD102E0012000F050F81F4B1B7813F0020FF7D01D4B1B7813F0020F06D01A4B1B78B7
:401F80009B0805D04FF0FF3603E04FF0FF3600E02E4606BB154A537812783946204600F0F7F8072804D0064615E0012000F02CF80D4B1B7813F0020FF7D00B4B1B7813F026
:401FC000020F06D0084B1B789B0804D04FF0FF3601E04FF0FF3600F045F9354600E004252846BDE8F08100BF224700406C95FF1F08B53F2801D9102301E04FF48073FFF7D9
:402000007BFF08BD01BE704708B5034B1B7A00FB03F000F04DFE08BDD080FF1F08B500F04FFE00BF00BF00BF00BF00BF00BF00BF00BF00BF00BF00BF00BF00BF00BF00BFC4
:4020400000BF064A13889BB243F0040313801388BFF36F8F00F038FE08BD00BF0048004070B504460E46074B1D681F2802D90020FFF7C8FF04F01F04103455F8240045F87D
:40208000246070BD08ED00E038B504460D46072902D90020FFF7B6FF1F2C02D90020FFF7B1FF04F01F0000F1604000F564406D01EDB2057038BD00BF08B500F001FE064ADF
:4020C000137843F0080313701032137843F00803137000F0F9FD08BDA043004070B506460D4600240CE00120FFF78EFF064B1B7813F0010FF7D0054B1B7833550134E4B2CC
:40210000AC42F3D3204670BD224700402047004070B41D4C247814F0020F2CD01B4CB6252570D5252570022525700234247814F0020F22D1154C2070002404E0165D134D06
:402140002E700134A4B29C42F8D3B3F5807F16D13F2816D800F5103001EB00214801002305E01A5CD2B209490A7001339BB21F2BF7D9072006E0042004E0092002E007206F
:4021800000E0072070BC7047224700402047004030B4104C247814F0020F15D00E4CB6252570D8252570052525700234247814F0020F0BD1084C2070080A2070C9B221709F
:4021C00022702370072002E0042000E0092030BC704700BF22470040204700400C4B1B7813F0020F0FD00B4BB6221A70E1221A700E221A7002331B7813F0020F05D1054BF4
:40220000187007207047042070470920704700BF224700402047004010B500F051FD0F4B1B78A3B901220D4B1A700D4B1B6813F0010F0ED00A4A136823F00103136000BF39
:4022400000BF00BF0122054B5A60002402E0042400E0002400F038FD204610BD7C81FF1F0400084008B500F02BFD0A4B00221A705B68012B0AD1084A136843F001031360AB
:4022800000BF00BF00BF0022024B5A6000F01CFD08BD00BF7C81FF1F04000840074B1B7813F0020F08D0064BB6221A70E0221A700D221A7007207047042070472247004099
:4022C0002047004038B59DF81040651EEDB2032D51D8013809282ED8DFE800F0052D2D052D2D0F192D230F2B03D92548007840B222E02448007840B21EE00F2B03D922484A
:40230000007840B218E02148007840B214E00F2B03D91F48007840B20EE01E48007840B20AE00F2B03D91C48007840B204E01B48007840B200E0002001EB401101FB02F223
:40234000D20B91B20D2B0BD8C3F10E0192B20A4191B2621E124800EB82020133937005E0631E0F4A02EB83030F229A70013C0C4B23F8241038BD0020FFF744FE38BD00BFBC
:40238000180100491C010049190100491D0100491A0100491E0100491B0100491F0100498481FF1FF8B5074600F08AFC06460D4D2B7843F003032B700B4C237843F0030316
:4023C00023700A4B1F700320FFF71EFE2B7803F0FC032B70237803F0FC032370304600F073FCF8BDF8460040F9460040925800402DE9F04104460022C64B1A74012860D184
:402400003822C54B1A70042202331A70062201331A70002501331D7001331D703F2201331A7002331D7001331D7001331D7001260A331E70502203F527631A700A22013303
:402440001A702C2201331A7001331D70442203331A70482201331A7001331E704FF00208023383F80080122201331A70282201331A70EB2201331A705220FFF793FF582243
:40248000A64B1A7001331D70052705331F70013383F8008001331D7001331D70284600F0ADFA43F233329E4B1A603146384600F0C9FA3146172000F049FB9A491D20FFF79A
:4024C000CFFD022C60D13822934B1A70042202331A70062201331A70002501331D7001331D703F2201331A7002331D7001331D7001331D7001260A331E70502203F5276334
:402500001A70272201331A702C2201331A7001331D70552203331A705A2201331A704FF00508013383F8008002331E70112701331F70192201331A70972201331A704420BF
:40254000FFF730FF5822754B1A7001331D70053383F80080022201331A7001331D7001331D70284600F04AFA4FF47A426C4B1A603146384600F066FA31466F2000F0E6FA2D
:4025800069491D20FFF76CFD032C60D13822624B1A70042202331A70062201331A70002501331D7001331D703F2201331A7002331D7001331D7001331D7001260A331E7015
:4025C000502203F527631A70272201331A702C2201331A7001331D70552203331A705A2201331A704FF00508013383F8008002331E70112701331F70192201331A7097222D
:4026000001331A704420FFF7CDFE5822434B1A7001331D70053383F80080022201331A7001331D7001331D70284600F0E7F94FF47A423B4B1A603146384600F003FA314637
:402640006F2000F083FA39491D20FFF709FD042C5DD13822304B1A70042202331A70062201331A70002401331C7001331C703F2201331A7002331C7001331C7001331C7017
:4026800001250A331D70502203F527631A70272201331A702C2201331A7001331C70552203331A705A2201331A70052701331F7002331D70112601331E70192201331A70C5
:4026C000972201331A704420FFF76CFE5822134B1A7001331C7005331F70022201331A7001331C7001331C70204600F087F94FF47A420B4B1A602946304600F0A3F92946CF
:402700006F2000F023FA0A491D20FFF7A9FCBDE8F08100BF8481FF1F004E0040945800407095FF1FCD290000D1290000D5290000D92900002DE9F04182B0394D4FF00108C6
:4027400085F80080374E00247474102000F068F9102000F0E9F907211D20FFF795FC0427314B1F7001331C7007331C702F4A137843F0180313702E4B1C7003F2F5231C702D
:4027800001331C700A22A3F209331A7001331C7002331C705B2205331A705E2201331A7004331C701422A3F68C231A70CDF8008010234FF4004248F6F0510220FFF782FDF6
:4027C0000223009310234FF4004249F2DA012046FFF778FD0323009310234FF4004249F2DA012046FFF76EFD009710234FF4004249F2DA012046FFF765FD2B78013B06EB41
:4028000083039A780B4B1A702B78013B36F82320094B1A802878FFF7EBFD02B0BDE8F081E080FF1F8481FF1F96580040075B0040935800400E4E00400C4E004070B500F0B5
:402840003FFA06462A4B1B782A4B1A7842F001021A701A7842F010021A7010331A7842F001021A701A7842F010021A70224D2B7843F002032B70214C237843F002032370F9
:402880001F4A137843F0030313700320FFF7BCFB2B7803F0FD032B70237803F0FD032370184A137843F0060313707A22164B1A70164A137843F0010313701032137843F06E
:4028C000010313700F3A137843F0010313701032137843F0010313704FF000530C4A1360A2F5C0721360304600F0EEF970BD00BFE080FF1FAA430040F8460040F9460040C4
:40290000915800407758004082580040A143004080E200E008B5084B9B7C4BB9064BDB7C13F0FF0F01D1FFF705FF0122024B9A74FFF784FF08BD00BF8481FF1F024A1378BA
:4029400043F0010313707047004E0040094B1B7C13F0FF0F03D0074B5B7CDBB203E0064B1B7803F00103012B01D00028EED01846704700BF8481FF1F014E00400E4B1B78C0
:4029800003F00303012B03D80C4B188880B209E00A4A12780A49087842EA0020032B01D1084B1B78084B1B7C13F0FF0F02D00022054B5A7400B27047144E0040104E00406C
:4029C000114E0040124E00408481FF1F704700BF704700BF704700BF704700BF10B5002404E02046FDF76EFF0134E4B2012CF8D9FF22014B1A7010BDE180FF1F10B50446EE
:402A0000FFF7ECFF2046FDF74FFF014B1C7010BDE180FF1F014B188880B2704780400040034B1A7800F0F80010431870704700BF82400040024B187800F00700704700BFAF
:402A40008240004070B505460E46FFF7F3FF0446FFF7E0FFA84256D02B4B1B7803F0010294B900B185B938B9284B1D80284A137803F0BF03137070BD254A137843F040036B
:402A80001370224B1D8070BD22B3002321490B7001240F310C7004310B700C390B7803F07F030B701A4B1B7813F0080F00D08DB9194B18800721013B1970164B1B7813F02E
:402AC000010FFAD110490B7803F0FE030B700021104B19700C4B1B7813F0010F0DD00E4B1D800EB1032200E001220A4B1A70094B1B7813F0010FFAD170BD044B1D800249EC
:402B00000B7813430B7070BDA243004080400040824000400140004002400040014B188880B2704700410040034B1A7800F0F80010431870704700BF02410040024B18781B
:402B400000F00700704700BF0241004070B505460E46FFF7F3FF0446FFF7E0FFA84256D02B4B1B7803F0010294B900B185B938B9284B1D80284A137803F0BF03137070BDEC
:402B8000254A137843F040031370224B1D8070BD22B3002321490B70012413310C7004390B7008390B7803F07F030B701A4B1B7813F0080F00D08DB9194B18800721013B35
:402BC0001970164B1B7813F0010FFAD110490B7803F0FE030B700021104B19700C4B1B7813F0010F0DD00E4B1D800EB1032200E001220A4B1A70094B1B7813F0010FFAD1CF
:402C000070BD044B1D8002490B7813430B7070BDA1430040004100400241004001400040024000400122014B1A707047CC94FF1F014B1B681864704708ED00E04001C0B2CC
:402C4000014B1870704700BF00E400E00122014B1A60704700E100E00122014B1A60704780E100E008B5FFF7F7FF0448FFF7E0FF0720FFF7E3FFFFF7E9FF08BD252C000047
:402C800000B585B000238DF809304FF4807200928DF8083005230193039003496846FFF77FF805B05DF804FB7495FF1F000000000230800803D000BF01380046FCD1704790
:402CC000EFF3108072B6704780F31088704700BF0B4B1B7803F00303012B02D0022B03D00CE0074B1B7909E0054B1B7903F07F0303EB43039A00034B1A44937A00207047B0
:402D000000600040F894FF1F014B1868704700BF4481FF1F0E4B70B51E460E4C0025E41AA410A54204D056F8253098470135F8E700F018FE084B094C1E46E41AA4100025D6
:402D4000A54204D056F8253098470135F8E770BD7039000070390000703900007839000010B5431E0A44914204D011F8014B03F8014FF8E710BD03460244934202D003F890
:402D8000011BFAE77047034613F8012B002AFBD1181A01387047000000000000000000000000000000000000000000000000000000000000000000000000000000000000C7
:402DC00000000000000000000000000000000000000000000000000000000000000000000000000000000000000000000000000000000000000000000000000000000000D3
:402E00000000000000000000000000000000000000000000000000000000000000000000000000000000000000000000000000000000000000000000000000000000000092
:402E40000000000000000000000000000000000000000000000000000000000000000000000000000000000000000000000000000000000000000000000000000000000052
:402E80000000000000000000000000000000000000000000000000000000000000000000000000000000000000000000000000000000000000000000000000000000000012
:40380000616E616C6F6752656164000064756D766172310064756D7661723300035B00402443004040000000005100401000405100403000C051004010000000014000103F
:4038400000140140000800400140000A004C0140000200500140200001000000603800000100000050390000000000000000000001000000783800000100000020390000F2
:40388000040000009C38000000000000000000000000000098380000FF000000000081024000FF00000002024000FF00000083024000FF00000004024000FF00040309043F
:4038C000100343007900700072006500730073001403420055004C004B00200074006500730074001E03530074007200650061006D0069006E0067002000440061007400A3
:4039000061001A0343006F006E00740072006F006C00200044006100740061000000000009022E0001010080190904000004FF000003070581024000000705020240000088
:403940000705830240000007050402400000000012010002FF000008B40410000000010200014300F8B500BFF8BC08BC9E4670474D000000350A0000F8B500BFF8BC08BC0A
:403980009E4670472900000098390000C880FF1F800000004814000000000000DDCCBBAA0000A08C401901004800000000A24A0401FF000000000000000000000000000064
:4039C000000000000000000000000000000000000000000062390000000000000000000000000000000000000000000000000000000000000000000000000000000000002C
:403A00000000000000000000000000000000000000000000E480FF1F0000000000000000000000000000000000000000000000000000000000000000000000000000000004
:403A40000000000000000000000000000000000000000000000000000000000000000000000000000000000000000000000000000000000000000000000000000000000046
:403A80000000000000000000000000000000000000000000000000000000000000000000000000000000000000000000000000000000000000000000000000000000000006
:403AC00000000000000000000000000000000000000000000000000000000000000000000000000000000000000000000000000000000000000000000000000000000000C6
:403B00000000000000000000000000000000000000000000000000000000000000000000000000000000000000000000000000000000000000000000000000000000000085
:020000040003F7
:0200000480007A
:400000000145004001520040020101400103014001090140040A0140010B0140010D0140020F014001150140011B014009400140054101400142014001430140054401403E
:4000400004450140064601400A4701400448014002490140014C0140024D014001500140025101407E027C40E208E610E20AB502B802BE01D804DF011D02E20AE208E6109B
:40008000EC20EC203222358037043B1085808F04CCF0CE10E210860287109710A622E250A620A6207C0187108F01DE01E60884088601940197114610940196019711A40892
:4000C000D0010B110C080E01960197119E10A408B401C20FEC0822012701A620C860AE21B3019E10B210EC04021400AB010200004000000000000000C0000000000B0B00E7
:400100000000000004000000000000000000000000000800160018010000000000000000000000000000000000000000000000000000000000000000000000000000000084
:40014000000000000000000000000000000000000000000000000000000000000000000000000000000000000000000000000000000000000000000000000000000000007F
:40018000000000000000000000000000000000000000000000000000000000000000000000000000000000000000000000000000000000000000000000000000000000003F
:4001C00000000000000000000000000000000000000000000000000000000000000000000000000000000000000000000000000000000000000000000000000000000000FF
:4002000000000000000000000000000000000000000000000000000000000000000000000000000000000000000000000000000000000000000000000000000000000000BE
:0200000490006A
:0400000000004005B7
:0200000490105A
:04000000BC90ACAF55
:0200000490303A
:020000002ED9F7
:0200000490402A
:4000000000000000000000000000000000000000000000000000000000000000000000000000000000000000000000000000000000000000000000000000000000000000C0
:400040000000000000000000000000000000000000000000000000000000000000000000000000000000000000000000000000000000000000000000000000000000000080
:400080000000000000000000000000000000000000000000000000000000000000000000000000000000000000000000000000000000000000000000000000000000000040
:4000C0000000000000000000000000000000000000000000000000000000000000000000000000000000000000000000000000000000000000000000000000000000000000
:0200000490501A
:0C00000000012E16106900012E273F425F
:00000001FF